:100000000C9434000C9449000C9449000C94490061
:100010000C9449000C9449000C9449000C9449003C
:100020000C9449000C9449000C9449000C9449002C
:100030000C9449000C9449000C9449000C9449001C
:100040000C9449000C9449000C9449000C9449000C
:100050000C9449000C9449000C9449000C944900FC
:100060000C9449000C94490011241FBECFEFD8E036
:10007000DEBFCDBF11E0A0E0B1E0EAE3F7E002C0EF
:1000800005900D92A431B107D9F70E94FF010C949D
:100090009B030C940000CF92DF92EF92FF9220E03E
:1000A00030E048E452E40E9463026B017C012DECD5
:1000B0003CEC4CEC5EE30E945E02882354F488B171
:1000C000806188B988B18F7D88B985B18F7E85B907
:1000D00027C02DEC3CEC4CEC5EE3C701B6010E945E
:1000E00087038823A4F02DEC3CEC4CE45FE3C701CC
:1000F000B6010E945E02181654F088B18F7E88B94E
:1001000088B1806288B985B18F7E85B909C088B110
:100110008F7E88B988B18F7D88B985B1806185B9B6
:10012000FF90EF90DF90CF90089585B1806285B900
:100130002AEA36EE86E991E0215030408040904036
:10014000D9F7000085B115B8089585B1826085B9E9
:1001500085E38A95F1F7000085B18D7F85B980919F
:10016000840090918500189BFECF1899FECF609176
:10017000840070918500681B790B80E090E00E94FC
:10018000D502089585B1886085B985E38A95F1F730
:10019000000085B1877F85B98091840090918500AA
:1001A0001A9BFECF1A99FECF609184007091850052
:1001B000681B790B80E090E00E94D5020895CF93F0
:1001C000DF93FC01EB019C01369527953695279529
:1001D00036952795A5ECB0E20E948C03AC015295B0
:1001E00042954F7045275F7045279A01ADECBCECF6
:1001F0000E948C03969587959695879596958795F9
:100200009C01220F331F880F991F880F991F880F99
:10021000991F820F931F9A01281B390B398328835A
:100220009F013695279536952795ABE7B4E10E9457
:100230008C03AC01569547959A01ADECBCEC0E943D
:100240008C039695879596958795969587959C01AD
:10025000220F331F880F991F880F991F880F991F2E
:10026000820F931F9A01281B390B3B832A839F011E
:100270000E948C03AC015695479556954795569527
:1002800047959A010E948C03969587959695879538
:10029000969587959C01220F331F880F991F880F11
:1002A000991F880F991F820F931F9A01281B390BE2
:1002B0003D832C83CA01880F991F440F551F440F9B
:1002C000551F440F551F480F591FE41BF50BFF83A3
:1002D000EE83DF91CF9108950F931F93CF93DF9318
:1002E000CDB7DEB764970FB6F894DEBF0FBECDBFB3
:1002F0008B0124E1E0E0F1E0DE01119601900D9226
:100300002A95E1F70E94DF0090E06BC0D801ED91E3
:10031000FC91EE0FFF1F21E030E02C0F3D1FE20F9C
:10032000F31F80818BB988B18E7F88B9AFE3BFE1BD
:100330001197F1F700C0000088B1816088B9D80139
:100340001296ED91FC911397EE0FFF1F21E030E024
:100350002C0F3D1FE20FF31F80818BB988B18D7F79
:1003600088B9AFE3BFE11197F1F700C0000088B191
:10037000826088B9D8011496ED91FC911597EE0F23
:10038000FF1F21E030E02C0F3D1FE20FF31F8081A3
:100390008BB988B18B7F88B9AFE3BFE11197F1F7D3
:1003A00000C0000088B1846088B9D8011696ED912C
:1003B000FC911797EE0FFF1F21E030E02C0F3D1F3F
:1003C000E20FF31F80818BB988B1877F88B9AFE3D3
:1003D000BFE11197F1F700C0000088B1886088B9CB
:1003E0009F5F943608F492CF64960FB6F894DEBF00
:1003F0000FBECDBFDF91CF911F910F910895CF9385
:10040000DF93CDB7DEB728970FB6F894DEBF0FBEE7
:10041000CDBF87B1806387B984B1806184B9789496
:1004200085E08093810010928500109284001092E4
:10043000800084B18A6084B984B1806284B98AB151
:100440008FEF8AB987B18F6087B907E210E0B801F2
:1004500080E090E00E94D5020E944B00BE016F5FD9
:100460007F4FC8010E946C010E94A50020E030E08F
:1004700046E153E40E945E02882324F40E94950022
:100480000F5F1F4FB80180E090E00E94D5020E94EC
:100490004B00BE016F5F7F4FC8010E946C010E943C
:1004A000C20020E030E04CED52E40E945E0288235E
:1004B00074F60E94950001501109C9CF0E941203E1
:1004C00008F481E008950E9477020C944D030E9485
:1004D000460358F00E943F0340F029F45F3F29F0A3
:1004E0000C94360351110C9481030C943C030E942C
:1004F0005E0368F39923B1F3552391F3951B550BD4
:10050000BB27AA2762177307840738F09F5F5F4FE6
:10051000220F331F441FAA1FA9F335D00E2E3AF025
:10052000E0E832D091505040E695001CCAF72BD03D
:10053000FE2F29D0660F771F881FBB1F261737078E
:100540004807AB07B0E809F0BB0B802DBF01FF27C0
:1005500093585F4F3AF09E3F510578F00C94360364
:100560000C9481035F3FE4F3983ED4F3869577952E
:100570006795B795F7959F5FC9F7880F911D969579
:10058000879597F90895E1E0660F771F881FBB1FD5
:10059000621773078407BA0720F0621B730B840B82
:1005A000BA0BEE1F88F7E0950895E89409C097FB11
:1005B0003EF490958095709561957F4F8F4F9F4F3A
:1005C0009923A9F0F92F96E9BB279395F69587957E
:1005D00077956795B795F111F8CFFAF4BB0F11F441
:1005E00060FF1BC06F5F7F4F8F4F9F4F16C08823E8
:1005F00011F096E911C0772321F09EE8872F762F1E
:1006000005C0662371F096E8862F70E060E02AF05E
:100610009A95660F771F881FDAF7880F969587954A
:1006200097F90895990F0008550FAA0BE0E8FEEF1F
:1006300016161706E807F907C0F012161306E407A6
:10064000F50798F0621B730B840B950B39F40A269F
:1006500061F0232B242B252B21F408950A2609F47D
:10066000A140A6958FEF811D811D089597F99F6781
:1006700080E870E060E008959FEF80EC089500242A
:100680000A941616170618060906089500240A94F7
:1006900012161306140605060895092E0394000C7D
:1006A00011F4882352F0BB0F40F4BF2B11F460FF0C
:1006B00004C06F5F7F4F8F4F9F4F089557FD905835
:1006C000440F551F59F05F3F71F04795880F97FB16
:1006D000991F61F09F3F79F08795089512161306D0
:1006E0001406551FF2CF4695F1DF08C016161706FF
:1006F0001806991FF1CF8695710561050894089534
:10070000E894BB2766277727CB0197F908950E94C5
:10071000120308F48FEF0895A29FB001B39FC001A8
:10072000A39F700D811D1124911DB29F700D811D1D
:0A0730001124911D0895F894FFCFE5
:10073A003F0006005B004F0066006D007D00070069
:04074A007F006700C5
:00000001FF
